{
  "_format": "hh-sol-artifact-1",
  "contractName": "HexaToken",
  "sourceName": "contracts/HexaToken.sol",
  "abi": [
    {
      "inputs": [
        {
          "internalType": "string",
          "name": "_name",
          "type": "string"
        },
        {
          "internalType": "string",
          "name": "_symbol",
          "type": "string"
        }
      ],
      "stateMutability": "nonpayable",
      "type": "constructor"
    },
    {
      "anonymous": false,
      "inputs": [
        {
          "indexed": true,
          "internalType": "address",
          "name": "owner",
          "type": "address"
        },
        {
          "indexed": true,
          "internalType": "address",
          "name": "approved",
          "type": "address"
        },
        {
          "indexed": true,
          "internalType": "uint256",
          "name": "tokenId",
          "type": "uint256"
        }
      ],
      "name": "Approval",
      "type": "event"
    },
    {
      "anonymous": false,
      "inputs": [
        {
          "indexed": true,
          "internalType": "address",
          "name": "owner",
          "type": "address"
        },
        {
          "indexed": true,
          "internalType": "address",
          "name": "operator",
          "type": "address"
        },
        {
          "indexed": false,
          "internalType": "bool",
          "name": "approved",
          "type": "bool"
        }
      ],
      "name": "ApprovalForAll",
      "type": "event"
    },
    {
      "anonymous": false,
      "inputs": [
        {
          "indexed": true,
          "internalType": "bytes32",
          "name": "role",
          "type": "bytes32"
        },
        {
          "indexed": true,
          "internalType": "bytes32",
          "name": "previousAdminRole",
          "type": "bytes32"
        },
        {
          "indexed": true,
          "internalType": "bytes32",
          "name": "newAdminRole",
          "type": "bytes32"
        }
      ],
      "name": "RoleAdminChanged",
      "type": "event"
    },
    {
      "anonymous": false,
      "inputs": [
        {
          "indexed": true,
          "internalType": "bytes32",
          "name": "role",
          "type": "bytes32"
        },
        {
          "indexed": true,
          "internalType": "address",
          "name": "account",
          "type": "address"
        },
        {
          "indexed": true,
          "internalType": "address",
          "name": "sender",
          "type": "address"
        }
      ],
      "name": "RoleGranted",
      "type": "event"
    },
    {
      "anonymous": false,
      "inputs": [
        {
          "indexed": true,
          "internalType": "bytes32",
          "name": "role",
          "type": "bytes32"
        },
        {
          "indexed": true,
          "internalType": "address",
          "name": "account",
          "type": "address"
        },
        {
          "indexed": true,
          "internalType": "address",
          "name": "sender",
          "type": "address"
        }
      ],
      "name": "RoleRevoked",
      "type": "event"
    },
    {
      "anonymous": false,
      "inputs": [
        {
          "indexed": true,
          "internalType": "address",
          "name": "from",
          "type": "address"
        },
        {
          "indexed": true,
          "internalType": "address",
          "name": "to",
          "type": "address"
        },
        {
          "indexed": true,
          "internalType": "uint256",
          "name": "tokenId",
          "type": "uint256"
        }
      ],
      "name": "Transfer",
      "type": "event"
    },
    {
      "inputs": [],
      "name": "DEFAULT_ADMIN_ROLE",
      "outputs": [
        {
          "internalType": "bytes32",
          "name": "",
          "type": "bytes32"
        }
      ],
      "stateMutability": "view",
      "type": "function"
    },
    {
      "inputs": [
        {
          "internalType": "address",
          "name": "to",
          "type": "address"
        },
        {
          "internalType": "uint256",
          "name": "tokenId",
          "type": "uint256"
        }
      ],
      "name": "approve",
      "outputs": [],
      "stateMutability": "nonpayable",
      "type": "function"
    },
    {
      "inputs": [
        {
          "internalType": "address",
          "name": "owner",
          "type": "address"
        }
      ],
      "name": "balanceOf",
      "outputs": [
        {
          "internalType": "uint256",
          "name": "",
          "type": "uint256"
        }
      ],
      "stateMutability": "view",
      "type": "function"
    },
    {
      "inputs": [
        {
          "internalType": "uint256",
          "name": "tokenId",
          "type": "uint256"
        }
      ],
      "name": "getApproved",
      "outputs": [
        {
          "internalType": "address",
          "name": "",
          "type": "address"
        }
      ],
      "stateMutability": "view",
      "type": "function"
    },
    {
      "inputs": [
        {
          "internalType": "bytes32",
          "name": "role",
          "type": "bytes32"
        }
      ],
      "name": "getRoleAdmin",
      "outputs": [
        {
          "internalType": "bytes32",
          "name": "",
          "type": "bytes32"
        }
      ],
      "stateMutability": "view",
      "type": "function"
    },
    {
      "inputs": [
        {
          "internalType": "bytes32",
          "name": "role",
          "type": "bytes32"
        },
        {
          "internalType": "uint256",
          "name": "index",
          "type": "uint256"
        }
      ],
      "name": "getRoleMember",
      "outputs": [
        {
          "internalType": "address",
          "name": "",
          "type": "address"
        }
      ],
      "stateMutability": "view",
      "type": "function"
    },
    {
      "inputs": [
        {
          "internalType": "bytes32",
          "name": "role",
          "type": "bytes32"
        }
      ],
      "name": "getRoleMemberCount",
      "outputs": [
        {
          "internalType": "uint256",
          "name": "",
          "type": "uint256"
        }
      ],
      "stateMutability": "view",
      "type": "function"
    },
    {
      "inputs": [
        {
          "internalType": "bytes32",
          "name": "role",
          "type": "bytes32"
        },
        {
          "internalType": "address",
          "name": "account",
          "type": "address"
        }
      ],
      "name": "grantRole",
      "outputs": [],
      "stateMutability": "nonpayable",
      "type": "function"
    },
    {
      "inputs": [
        {
          "internalType": "bytes32",
          "name": "role",
          "type": "bytes32"
        },
        {
          "internalType": "address",
          "name": "account",
          "type": "address"
        }
      ],
      "name": "hasRole",
      "outputs": [
        {
          "internalType": "bool",
          "name": "",
          "type": "bool"
        }
      ],
      "stateMutability": "view",
      "type": "function"
    },
    {
      "inputs": [
        {
          "internalType": "address",
          "name": "owner",
          "type": "address"
        },
        {
          "internalType": "address",
          "name": "operator",
          "type": "address"
        }
      ],
      "name": "isApprovedForAll",
      "outputs": [
        {
          "internalType": "bool",
          "name": "",
          "type": "bool"
        }
      ],
      "stateMutability": "view",
      "type": "function"
    },
    {
      "inputs": [
        {
          "internalType": "address",
          "name": "_to",
          "type": "address"
        }
      ],
      "name": "mintTo",
      "outputs": [],
      "stateMutability": "nonpayable",
      "type": "function"
    },
    {
      "inputs": [],
      "name": "name",
      "outputs": [
        {
          "internalType": "string",
          "name": "",
          "type": "string"
        }
      ],
      "stateMutability": "view",
      "type": "function"
    },
    {
      "inputs": [
        {
          "internalType": "uint256",
          "name": "tokenId",
          "type": "uint256"
        }
      ],
      "name": "ownerOf",
      "outputs": [
        {
          "internalType": "address",
          "name": "",
          "type": "address"
        }
      ],
      "stateMutability": "view",
      "type": "function"
    },
    {
      "inputs": [
        {
          "internalType": "bytes32",
          "name": "role",
          "type": "bytes32"
        },
        {
          "internalType": "address",
          "name": "account",
          "type": "address"
        }
      ],
      "name": "renounceRole",
      "outputs": [],
      "stateMutability": "nonpayable",
      "type": "function"
    },
    {
      "inputs": [
        {
          "internalType": "bytes32",
          "name": "role",
          "type": "bytes32"
        },
        {
          "internalType": "address",
          "name": "account",
          "type": "address"
        }
      ],
      "name": "revokeRole",
      "outputs": [],
      "stateMutability": "nonpayable",
      "type": "function"
    },
    {
      "inputs": [
        {
          "internalType": "address",
          "name": "from",
          "type": "address"
        },
        {
          "internalType": "address",
          "name": "to",
          "type": "address"
        },
        {
          "internalType": "uint256",
          "name": "tokenId",
          "type": "uint256"
        }
      ],
      "name": "safeTransferFrom",
      "outputs": [],
      "stateMutability": "nonpayable",
      "type": "function"
    },
    {
      "inputs": [
        {
          "internalType": "address",
          "name": "from",
          "type": "address"
        },
        {
          "internalType": "address",
          "name": "to",
          "type": "address"
        },
        {
          "internalType": "uint256",
          "name": "tokenId",
          "type": "uint256"
        },
        {
          "internalType": "bytes",
          "name": "_data",
          "type": "bytes"
        }
      ],
      "name": "safeTransferFrom",
      "outputs": [],
      "stateMutability": "nonpayable",
      "type": "function"
    },
    {
      "inputs": [
        {
          "internalType": "address",
          "name": "operator",
          "type": "address"
        },
        {
          "internalType": "bool",
          "name": "approved",
          "type": "bool"
        }
      ],
      "name": "setApprovalForAll",
      "outputs": [],
      "stateMutability": "nonpayable",
      "type": "function"
    },
    {
      "inputs": [
        {
          "internalType": "bytes4",
          "name": "interfaceId",
          "type": "bytes4"
        }
      ],
      "name": "supportsInterface",
      "outputs": [
        {
          "internalType": "bool",
          "name": "",
          "type": "bool"
        }
      ],
      "stateMutability": "view",
      "type": "function"
    },
    {
      "inputs": [],
      "name": "symbol",
      "outputs": [
        {
          "internalType": "string",
          "name": "",
          "type": "string"
        }
      ],
      "stateMutability": "view",
      "type": "function"
    },
    {
      "inputs": [
        {
          "internalType": "uint256",
          "name": "index",
          "type": "uint256"
        }
      ],
      "name": "tokenByIndex",
      "outputs": [
        {
          "internalType": "uint256",
          "name": "",
          "type": "uint256"
        }
      ],
      "stateMutability": "view",
      "type": "function"
    },
    {
      "inputs": [
        {
          "internalType": "address",
          "name": "owner",
          "type": "address"
        },
        {
          "internalType": "uint256",
          "name": "index",
          "type": "uint256"
        }
      ],
      "name": "tokenOfOwnerByIndex",
      "outputs": [
        {
          "internalType": "uint256",
          "name": "",
          "type": "uint256"
        }
      ],
      "stateMutability": "view",
      "type": "function"
    },
    {
      "inputs": [
        {
          "internalType": "uint256",
          "name": "tokenId",
          "type": "uint256"
        }
      ],
      "name": "tokenURI",
      "outputs": [
        {
          "internalType": "string",
          "name": "",
          "type": "string"
        }
      ],
      "stateMutability": "pure",
      "type": "function"
    },
    {
      "inputs": [],
      "name": "totalSupply",
      "outputs": [
        {
          "internalType": "uint256",
          "name": "",
          "type": "uint256"
        }
      ],
      "stateMutability": "view",
      "type": "function"
    },
    {
      "inputs": [
        {
          "internalType": "address",
          "name": "from",
          "type": "address"
        },
        {
          "internalType": "address",
          "name": "to",
          "type": "address"
        },
        {
          "internalType": "uint256",
          "name": "tokenId",
          "type": "uint256"
        }
      ],
      "name": "transferFrom",
      "outputs": [],
      "stateMutability": "nonpayable",
      "type": "function"
    }
  ],
  "bytecode": "0x60806040526000600c553480156200001657600080fd5b506040516200470e3803806200470e83398181016040528101906200003c9190620002c7565b81818160029080519060200190620000569291906200007a565b5080600390805190602001906200006f9291906200007a565b5050505050620003b1565b82805462000088906200037b565b90600052602060002090601f016020900481019282620000ac5760008555620000f8565b82601f10620000c757805160ff1916838001178555620000f8565b82800160010185558215620000f8579182015b82811115620000f7578251825591602001919060010190620000da565b5b5090506200010791906200010b565b5090565b5b80821115620001265760008160009055506001016200010c565b5090565b6000604051905090565b600080fd5b600080fd5b600080fd5b600080fd5b6000601f19601f8301169050919050565b7f4e487b7100000000000000000000000000000000000000000000000000000000600052604160045260246000fd5b620001938262000148565b810181811067ffffffffffffffff82111715620001b557620001b462000159565b5b80604052505050565b6000620001ca6200012a565b9050620001d8828262000188565b919050565b600067ffffffffffffffff821115620001fb57620001fa62000159565b5b620002068262000148565b9050602081019050919050565b60005b838110156200023357808201518184015260208101905062000216565b8381111562000243576000848401525b50505050565b6000620002606200025a84620001dd565b620001be565b9050828152602081018484840111156200027f576200027e62000143565b5b6200028c84828562000213565b509392505050565b600082601f830112620002ac57620002ab6200013e565b5b8151620002be84826020860162000249565b91505092915050565b60008060408385031215620002e157620002e062000134565b5b600083015167ffffffffffffffff81111562000302576200030162000139565b5b620003108582860162000294565b925050602083015167ffffffffffffffff81111562000334576200033362000139565b5b620003428582860162000294565b9150509250929050565b7f4e487b7100000000000000000000000000000000000000000000000000000000600052602260045260246000fd5b600060028204905060018216806200039457607f821691505b60208210811415620003ab57620003aa6200034c565b5b50919050565b61434d80620003c16000396000f3fe608060405234801561001057600080fd5b50600436106101735760003560e01c80636352211e116100de578063a217fddf11610097578063c87b56dd11610071578063c87b56dd14610480578063ca15c873146104b0578063d547741f146104e0578063e985e9c5146104fc57610173565b8063a217fddf1461042a578063a22cb46514610448578063b88d4fde1461046457610173565b80636352211e1461033057806370a0823114610360578063755edd17146103905780639010d07c146103ac57806391d14854146103dc57806395d89b411461040c57610173565b8063248a9ca311610130578063248a9ca31461024c5780632f2ff15d1461027c5780632f745c591461029857806336568abe146102c857806342842e0e146102e45780634f6ccce71461030057610173565b806301ffc9a71461017857806306fdde03146101a8578063081812fc146101c6578063095ea7b3146101f657806318160ddd1461021257806323b872dd14610230575b600080fd5b610192600480360381019061018d9190612b27565b61052c565b60405161019f9190612b6f565b60405180910390f35b6101b061053e565b6040516101bd9190612c23565b60405180910390f35b6101e060048036038101906101db9190612c7b565b6105d0565b6040516101ed9190612ce9565b60405180910390f35b610210600480360381019061020b9190612d30565b610655565b005b61021a61076d565b6040516102279190612d7f565b60405180910390f35b61024a60048036038101906102459190612d9a565b61077a565b005b61026660048036038101906102619190612e23565b6107da565b6040516102739190612e5f565b60405180910390f35b61029660048036038101906102919190612e7a565b6107f9565b005b6102b260048036038101906102ad9190612d30565b610822565b6040516102bf9190612d7f565b60405180910390f35b6102e260048036038101906102dd9190612e7a565b6108c7565b005b6102fe60048036038101906102f99190612d9a565b61094a565b005b61031a60048036038101906103159190612c7b565b61096a565b6040516103279190612d7f565b60405180910390f35b61034a60048036038101906103459190612c7b565b6109db565b6040516103579190612ce9565b60405180910390f35b61037a60048036038101906103759190612eba565b610a8d565b6040516103879190612d7f565b60405180910390f35b6103aa60048036038101906103a59190612eba565b610b45565b005b6103c660048036038101906103c19190612ee7565b610b67565b6040516103d39190612ce9565b60405180910390f35b6103f660048036038101906103f19190612e7a565b610b96565b6040516104039190612b6f565b60405180910390f35b610414610c00565b6040516104219190612c23565b60405180910390f35b610432610c92565b60405161043f9190612e5f565b60405180910390f35b610462600480360381019061045d9190612f53565b610c99565b005b61047e600480360381019061047991906130c8565b610caf565b005b61049a60048036038101906104959190612c7b565b610d11565b6040516104a79190612c23565b60405180910390f35b6104ca60048036038101906104c59190612e23565b610e9c565b6040516104d79190612d7f565b60405180910390f35b6104fa60048036038101906104f59190612e7a565b610ec0565b005b6105166004803603810190610511919061314b565b610ee9565b6040516105239190612b6f565b60405180910390f35b600061053782610f7d565b9050919050565b60606002805461054d906131ba565b80601f0160208091040260200160405190810160405280929190818152602001828054610579906131ba565b80156105c65780601f1061059b576101008083540402835291602001916105c6565b820191906000526020600020905b8154815290600101906020018083116105a957829003601f168201915b5050505050905090565b60006105db82610ff7565b61061a576040517f08c379a00000000000000000000000000000000000000000000000000000000081526004016106119061325e565b60405180910390fd5b6006600083815260200190815260200160002060009054906101000a900473ffffffffffffffffffffffffffffffffffffffff169050919050565b6000610660826109db565b90508073ffffffffffffffffffffffffffffffffffffffff168373ffffffffffffffffffffffffffffffffffffffff1614156106d1576040517f08c379a00000000000000000000000000000000000000000000000000000000081526004016106c8906132f0565b60405180910390fd5b8073ffffffffffffffffffffffffffffffffffffffff166106f0611063565b73ffffffffffffffffffffffffffffffffffffffff16148061071f575061071e81610719611063565b610ee9565b5b61075e576040517f08c379a000000000000000000000000000000000000000000000000000000000815260040161075590613382565b60405180910390fd5b610768838361106b565b505050565b6000600a80549050905090565b61078b610785611063565b82611124565b6107ca576040517f08c379a00000000000000000000000000000000000000000000000000000000081526004016107c190613414565b60405180910390fd5b6107d5838383611202565b505050565b6000806000838152602001908152602001600020600101549050919050565b610802826107da565b6108138161080e611063565b611469565b61081d8383611506565b505050565b600061082d83610a8d565b821061086e576040517f08c379a0000000000000000000000000000000000000000000000000000000008152600401610865906134a6565b60405180910390fd5b600860008473ffffffffffffffffffffffffffffffffffffffff1673ffffffffffffffffffffffffffffffffffffffff168152602001908152602001600020600083815260200190815260200160002054905092915050565b6108cf611063565b73ffffffffffffffffffffffffffffffffffffffff168173ffffffffffffffffffffffffffffffffffffffff161461093c576040517f08c379a000000000000000000000000000000000000000000000000000000000815260040161093390613538565b60405180910390fd5b610946828261153a565b5050565b61096583838360405180602001604052806000815250610caf565b505050565b600061097461076d565b82106109b5576040517f08c379a00000000000000000000000000000000000000000000000000000000081526004016109ac906135ca565b60405180910390fd5b600a82815481106109c9576109c86135ea565b5b90600052602060002001549050919050565b6000806004600084815260200190815260200160002060009054906101000a900473ffffffffffffffffffffffffffffffffffffffff169050600073ffffffffffffffffffffffffffffffffffffffff168173ffffffffffffffffffffffffffffffffffffffff161415610a84576040517f08c379a0000000000000000000000000000000000000000000000000000000008152600401610a7b9061368b565b60405180910390fd5b80915050919050565b60008073ffffffffffffffffffffffffffffffffffffffff168273ffffffffffffffffffffffffffffffffffffffff161415610afe576040517f08c379a0000000000000000000000000000000000000000000000000000000008152600401610af59061371d565b60405180910390fd5b600560008373ffffffffffffffffffffffffffffffffffffffff1673ffffffffffffffffffffffffffffffffffffffff168152602001908152602001600020549050919050565b6000610b4f61156e565b9050610b5b8282611584565b610b6361175e565b5050565b6000610b8e826001600086815260200190815260200160002061177890919063ffffffff16565b905092915050565b600080600084815260200190815260200160002060000160008373ffffffffffffffffffffffffffffffffffffffff1673ffffffffffffffffffffffffffffffffffffffff16815260200190815260200160002060009054906101000a900460ff16905092915050565b606060038054610c0f906131ba565b80601f0160208091040260200160405190810160405280929190818152602001828054610c3b906131ba565b8015610c885780601f10610c5d57610100808354040283529160200191610c88565b820191906000526020600020905b815481529060010190602001808311610c6b57829003601f168201915b5050505050905090565b6000801b81565b610cab610ca4611063565b8383611792565b5050565b610cc0610cba611063565b83611124565b610cff576040517f08c379a0000000000000000000000000000000000000000000000000000000008152600401610cf690613414565b60405180910390fd5b610d0b848484846118ff565b50505050565b6060610d1b612a94565b6040518061012001604052806101008152602001614218610100913981600060038110610d4b57610d4a6135ea565b5b6020020181905250610d5c8361195b565b81600160038110610d7057610d6f6135ea565b5b60200201819052506040518060400160405280600d81526020017f3c2f746578743e3c2f7376673e0000000000000000000000000000000000000081525081600260038110610dc257610dc16135ea565b5b60200201819052506000610e71610dd88561195b565b610e4c84600060038110610def57610dee6135ea565b5b602002015185600160038110610e0857610e076135ea565b5b602002015186600260038110610e2157610e206135ea565b5b6020020151604051602001610e3893929190613779565b604051602081830303815290604052611abc565b604051602001610e5d929190613926565b604051602081830303815290604052611abc565b905080604051602001610e8491906139c2565b60405160208183030381529060405292505050919050565b6000610eb960016000848152602001908152602001600020611c20565b9050919050565b610ec9826107da565b610eda81610ed5611063565b611469565b610ee4838361153a565b505050565b6000600760008473ffffffffffffffffffffffffffffffffffffffff1673ffffffffffffffffffffffffffffffffffffffff16815260200190815260200160002060008373ffffffffffffffffffffffffffffffffffffffff1673ffffffffffffffffffffffffffffffffffffffff16815260200190815260200160002060009054906101000a900460ff16905092915050565b60007f780e9d63000000000000000000000000000000000000000000000000000000007bffffffffffffffffffffffffffffffffffffffffffffffffffffffff1916827bffffffffffffffffffffffffffffffffffffffffffffffffffffffff19161480610ff05750610fef82611c35565b5b9050919050565b60008073ffffffffffffffffffffffffffffffffffffffff166004600084815260200190815260200160002060009054906101000a900473ffffffffffffffffffffffffffffffffffffffff1673ffffffffffffffffffffffffffffffffffffffff1614159050919050565b600033905090565b816006600083815260200190815260200160002060006101000a81548173ffffffffffffffffffffffffffffffffffffffff021916908373ffffffffffffffffffffffffffffffffffffffff160217905550808273ffffffffffffffffffffffffffffffffffffffff166110de836109db565b73ffffffffffffffffffffffffffffffffffffffff167f8c5be1e5ebec7d5bd14f71427d1e84f3dd0314c0f7b2291e5b200ac8c7c3b92560405160405180910390a45050565b600061112f82610ff7565b61116e576040517f08c379a000000000000000000000000000000000000000000000000000000000815260040161116590613a56565b60405180910390fd5b6000611179836109db565b90508073ffffffffffffffffffffffffffffffffffffffff168473ffffffffffffffffffffffffffffffffffffffff1614806111e857508373ffffffffffffffffffffffffffffffffffffffff166111d0846105d0565b73ffffffffffffffffffffffffffffffffffffffff16145b806111f957506111f88185610ee9565b5b91505092915050565b8273ffffffffffffffffffffffffffffffffffffffff16611222826109db565b73ffffffffffffffffffffffffffffffffffffffff1614611278576040517f08c379a000000000000000000000000000000000000000000000000000000000815260040161126f90613ae8565b60405180910390fd5b600073ffffffffffffffffffffffffffffffffffffffff168273ffffffffffffffffffffffffffffffffffffffff1614156112e8576040517f08c379a00000000000000000000000000000000000000000000000000000000081526004016112df90613b7a565b60405180910390fd5b6112f3838383611d17565b6112fe60008261106b565b6001600560008573ffffffffffffffffffffffffffffffffffffffff1673ffffffffffffffffffffffffffffffffffffffff168152602001908152602001600020600082825461134e9190613bc9565b925050819055506001600560008473ffffffffffffffffffffffffffffffffffffffff1673ffffffffffffffffffffffffffffffffffffffff16815260200190815260200160002060008282546113a59190613bfd565b92505081905550816004600083815260200190815260200160002060006101000a81548173ffffffffffffffffffffffffffffffffffffffff021916908373ffffffffffffffffffffffffffffffffffffffff160217905550808273ffffffffffffffffffffffffffffffffffffffff168473ffffffffffffffffffffffffffffffffffffffff167fddf252ad1be2c89b69c2b068fc378daa952ba7f163c4a11628f55a4df523b3ef60405160405180910390a4611464838383611d27565b505050565b6114738282610b96565b611502576114988173ffffffffffffffffffffffffffffffffffffffff166014611d2c565b6114a68360001c6020611d2c565b6040516020016114b7929190613ceb565b6040516020818303038152906040526040517f08c379a00000000000000000000000000000000000000000000000000000000081526004016114f99190612c23565b60405180910390fd5b5050565b6115108282611f68565b611535816001600085815260200190815260200160002061204890919063ffffffff16565b505050565b6115448282612078565b611569816001600085815260200190815260200160002061215990919063ffffffff16565b505050565b60006001600c5461157f9190613bfd565b905090565b600073ffffffffffffffffffffffffffffffffffffffff168273ffffffffffffffffffffffffffffffffffffffff1614156115f4576040517f08c379a00000000000000000000000000000000000000000000000000000000081526004016115eb90613d71565b60405180910390fd5b6115fd81610ff7565b1561163d576040517f08c379a000000000000000000000000000000000000000000000000000000000815260040161163490613ddd565b60405180910390fd5b61164960008383611d17565b6001600560008473ffffffffffffffffffffffffffffffffffffffff1673ffffffffffffffffffffffffffffffffffffffff16815260200190815260200160002060008282546116999190613bfd565b92505081905550816004600083815260200190815260200160002060006101000a81548173ffffffffffffffffffffffffffffffffffffffff021916908373ffffffffffffffffffffffffffffffffffffffff160217905550808273ffffffffffffffffffffffffffffffffffffffff16600073ffffffffffffffffffffffffffffffffffffffff167fddf252ad1be2c89b69c2b068fc378daa952ba7f163c4a11628f55a4df523b3ef60405160405180910390a461175a60008383611d27565b5050565b600c600081548092919061177190613dfd565b9190505550565b60006117878360000183612189565b60001c905092915050565b8173ffffffffffffffffffffffffffffffffffffffff168373ffffffffffffffffffffffffffffffffffffffff161415611801576040517f08c379a00000000000000000000000000000000000000000000000000000000081526004016117f890613e92565b60405180910390fd5b80600760008573ffffffffffffffffffffffffffffffffffffffff1673ffffffffffffffffffffffffffffffffffffffff16815260200190815260200160002060008473ffffffffffffffffffffffffffffffffffffffff1673ffffffffffffffffffffffffffffffffffffffff16815260200190815260200160002060006101000a81548160ff0219169083151502179055508173ffffffffffffffffffffffffffffffffffffffff168373ffffffffffffffffffffffffffffffffffffffff167f17307eab39ab6107e8899845ad3d59bd9653f200f220920489ca2b5937696c31836040516118f29190612b6f565b60405180910390a3505050565b61190a848484611202565b611916848484846121b4565b611955576040517f08c379a000000000000000000000000000000000000000000000000000000000815260040161194c90613f24565b60405180910390fd5b50505050565b606060008214156119a3576040518060400160405280600181526020017f30000000000000000000000000000000000000000000000000000000000000008152509050611ab7565b600082905060005b600082146119d55780806119be90613dfd565b915050600a826119ce9190613f73565b91506119ab565b60008167ffffffffffffffff8111156119f1576119f0612f9d565b5b6040519080825280601f01601f191660200182016040528015611a235781602001600182028036833780820191505090505b5090505b60008514611ab057600182611a3c9190613bc9565b9150600a85611a4b9190613fa4565b6030611a579190613bfd565b60f81b818381518110611a6d57611a6c6135ea565b5b60200101907effffffffffffffffffffffffffffffffffffffffffffffffffffffffffffff1916908160001a905350600a85611aa99190613f73565b9450611a27565b8093505050505b919050565b6060600082511415611adf57604051806020016040528060008152509050611c1b565b60006040518060600160405280604081526020016141d86040913990506000600360028551611b0e9190613bfd565b611b189190613f73565b6004611b249190613fd5565b67ffffffffffffffff811115611b3d57611b3c612f9d565b5b6040519080825280601f01601f191660200182016040528015611b6f5781602001600182028036833780820191505090505b509050600182016020820185865187015b80821015611bdb576003820191508151603f8160121c168501518453600184019350603f81600c1c168501518453600184019350603f8160061c168501518453600184019350603f8116850151845360018401935050611b80565b5050600386510660018114611bf75760028114611c0a57611c12565b603d6001830353603d6002830353611c12565b603d60018303535b50505080925050505b919050565b6000611c2e8260000161233c565b9050919050565b60007f80ac58cd000000000000000000000000000000000000000000000000000000007bffffffffffffffffffffffffffffffffffffffffffffffffffffffff1916827bffffffffffffffffffffffffffffffffffffffffffffffffffffffff19161480611d0057507f5b5e139f000000000000000000000000000000000000000000000000000000007bffffffffffffffffffffffffffffffffffffffffffffffffffffffff1916827bffffffffffffffffffffffffffffffffffffffffffffffffffffffff1916145b80611d105750611d0f8261234d565b5b9050919050565b611d228383836123c7565b505050565b505050565b606060006002836002611d3f9190613fd5565b611d499190613bfd565b67ffffffffffffffff811115611d6257611d61612f9d565b5b6040519080825280601f01601f191660200182016040528015611d945781602001600182028036833780820191505090505b5090507f300000000000000000000000000000000000000000000000000000000000000081600081518110611dcc57611dcb6135ea565b5b60200101907effffffffffffffffffffffffffffffffffffffffffffffffffffffffffffff1916908160001a9053507f780000000000000000000000000000000000000000000000000000000000000081600181518110611e3057611e2f6135ea565b5b60200101907effffffffffffffffffffffffffffffffffffffffffffffffffffffffffffff1916908160001a90535060006001846002611e709190613fd5565b611e7a9190613bfd565b90505b6001811115611f1a577f3031323334353637383961626364656600000000000000000000000000000000600f861660108110611ebc57611ebb6135ea565b5b1a60f81b828281518110611ed357611ed26135ea565b5b60200101907effffffffffffffffffffffffffffffffffffffffffffffffffffffffffffff1916908160001a905350600485901c945080611f139061402f565b9050611e7d565b5060008414611f5e576040517f08c379a0000000000000000000000000000000000000000000000000000000008152600401611f55906140a5565b60405180910390fd5b8091505092915050565b611f728282610b96565b61204457600160008084815260200190815260200160002060000160008373ffffffffffffffffffffffffffffffffffffffff1673ffffffffffffffffffffffffffffffffffffffff16815260200190815260200160002060006101000a81548160ff021916908315150217905550611fe9611063565b73ffffffffffffffffffffffffffffffffffffffff168173ffffffffffffffffffffffffffffffffffffffff16837f2f8788117e7eff1d82e926ec794901d17c78024a50270940304540a733656f0d60405160405180910390a45b5050565b6000612070836000018373ffffffffffffffffffffffffffffffffffffffff1660001b6124db565b905092915050565b6120828282610b96565b1561215557600080600084815260200190815260200160002060000160008373ffffffffffffffffffffffffffffffffffffffff1673ffffffffffffffffffffffffffffffffffffffff16815260200190815260200160002060006101000a81548160ff0219169083151502179055506120fa611063565b73ffffffffffffffffffffffffffffffffffffffff168173ffffffffffffffffffffffffffffffffffffffff16837ff6391f5c32d9c69d2a47ea670b442974b53935d1edc7fd64eb21e047a839171b60405160405180910390a45b5050565b6000612181836000018373ffffffffffffffffffffffffffffffffffffffff1660001b61254b565b905092915050565b60008260000182815481106121a1576121a06135ea565b5b9060005260206000200154905092915050565b60006121d58473ffffffffffffffffffffffffffffffffffffffff1661265f565b1561232f578373ffffffffffffffffffffffffffffffffffffffff1663150b7a026121fe611063565b8786866040518563ffffffff1660e01b8152600401612220949392919061411a565b6020604051808303816000875af192505050801561225c57506040513d601f19601f82011682018060405250810190612259919061417b565b60015b6122df573d806000811461228c576040519150601f19603f3d011682016040523d82523d6000602084013e612291565b606091505b506000815114156122d7576040517f08c379a00000000000000000000000000000000000000000000000000000000081526004016122ce90613f24565b60405180910390fd5b805181602001fd5b63150b7a0260e01b7bffffffffffffffffffffffffffffffffffffffffffffffffffffffff1916817bffffffffffffffffffffffffffffffffffffffffffffffffffffffff191614915050612334565b600190505b949350505050565b600081600001805490509050919050565b60007f5a05180f000000000000000000000000000000000000000000000000000000007bffffffffffffffffffffffffffffffffffffffffffffffffffffffff1916827bffffffffffffffffffffffffffffffffffffffffffffffffffffffff191614806123c057506123bf82612682565b5b9050919050565b6123d28383836126fc565b600073ffffffffffffffffffffffffffffffffffffffff168373ffffffffffffffffffffffffffffffffffffffff1614156124155761241081612701565b612454565b8173ffffffffffffffffffffffffffffffffffffffff168373ffffffffffffffffffffffffffffffffffffffff161461245357612452838261274a565b5b5b600073ffffffffffffffffffffffffffffffffffffffff168273ffffffffffffffffffffffffffffffffffffffff16141561249757612492816128b7565b6124d6565b8273ffffffffffffffffffffffffffffffffffffffff168273ffffffffffffffffffffffffffffffffffffffff16146124d5576124d48282612988565b5b5b505050565b60006124e78383612a07565b612540578260000182908060018154018082558091505060019003906000526020600020016000909190919091505582600001805490508360010160008481526020019081526020016000208190555060019050612545565b600090505b92915050565b6000808360010160008481526020019081526020016000205490506000811461265357600060018261257d9190613bc9565b90506000600186600001805490506125959190613bc9565b90508181146126045760008660000182815481106125b6576125b56135ea565b5b90600052602060002001549050808760000184815481106125da576125d96135ea565b5b90600052602060002001819055508387600101600083815260200190815260200160002081905550505b85600001805480612618576126176141a8565b5b600190038181906000526020600020016000905590558560010160008681526020019081526020016000206000905560019350505050612659565b60009150505b92915050565b6000808273ffffffffffffffffffffffffffffffffffffffff163b119050919050565b60007f7965db0b000000000000000000000000000000000000000000000000000000007bffffffffffffffffffffffffffffffffffffffffffffffffffffffff1916827bffffffffffffffffffffffffffffffffffffffffffffffffffffffff191614806126f557506126f482612a2a565b5b9050919050565b505050565b600a80549050600b600083815260200190815260200160002081905550600a81908060018154018082558091505060019003906000526020600020016000909190919091505550565b6000600161275784610a8d565b6127619190613bc9565b9050600060096000848152602001908152602001600020549050818114612846576000600860008673ffffffffffffffffffffffffffffffffffffffff1673ffffffffffffffffffffffffffffffffffffffff168152602001908152602001600020600084815260200190815260200160002054905080600860008773ffffffffffffffffffffffffffffffffffffffff1673ffffffffffffffffffffffffffffffffffffffff168152602001908152602001600020600084815260200190815260200160002081905550816009600083815260200190815260200160002081905550505b6009600084815260200190815260200160002060009055600860008573ffffffffffffffffffffffffffffffffffffffff1673ffffffffffffffffffffffffffffffffffffffff16815260200190815260200160002060008381526020019081526020016000206000905550505050565b60006001600a805490506128cb9190613bc9565b90506000600b60008481526020019081526020016000205490506000600a83815481106128fb576128fa6135ea565b5b9060005260206000200154905080600a838154811061291d5761291c6135ea565b5b906000526020600020018190555081600b600083815260200190815260200160002081905550600b600085815260200190815260200160002060009055600a80548061296c5761296b6141a8565b5b6001900381819060005260206000200160009055905550505050565b600061299383610a8d565b905081600860008573ffffffffffffffffffffffffffffffffffffffff1673ffffffffffffffffffffffffffffffffffffffff168152602001908152602001600020600083815260200190815260200160002081905550806009600084815260200190815260200160002081905550505050565b600080836001016000848152602001908152602001600020541415905092915050565b60007f01ffc9a7000000000000000000000000000000000000000000000000000000007bffffffffffffffffffffffffffffffffffffffffffffffffffffffff1916827bffffffffffffffffffffffffffffffffffffffffffffffffffffffff1916149050919050565b60405180606001604052806003905b6060815260200190600190039081612aa35790505090565b6000604051905090565b600080fd5b600080fd5b60007fffffffff0000000000000000000000000000000000000000000000000000000082169050919050565b612b0481612acf565b8114612b0f57600080fd5b50565b600081359050612b2181612afb565b92915050565b600060208284031215612b3d57612b3c612ac5565b5b6000612b4b84828501612b12565b91505092915050565b60008115159050919050565b612b6981612b54565b82525050565b6000602082019050612b846000830184612b60565b92915050565b600081519050919050565b600082825260208201905092915050565b60005b83811015612bc4578082015181840152602081019050612ba9565b83811115612bd3576000848401525b50505050565b6000601f19601f8301169050919050565b6000612bf582612b8a565b612bff8185612b95565b9350612c0f818560208601612ba6565b612c1881612bd9565b840191505092915050565b60006020820190508181036000830152612c3d8184612bea565b905092915050565b6000819050919050565b612c5881612c45565b8114612c6357600080fd5b50565b600081359050612c7581612c4f565b92915050565b600060208284031215612c9157612c90612ac5565b5b6000612c9f84828501612c66565b91505092915050565b600073ffffffffffffffffffffffffffffffffffffffff82169050919050565b6000612cd382612ca8565b9050919050565b612ce381612cc8565b82525050565b6000602082019050612cfe6000830184612cda565b92915050565b612d0d81612cc8565b8114612d1857600080fd5b50565b600081359050612d2a81612d04565b92915050565b60008060408385031215612d4757612d46612ac5565b5b6000612d5585828601612d1b565b9250506020612d6685828601612c66565b9150509250929050565b612d7981612c45565b82525050565b6000602082019050612d946000830184612d70565b92915050565b600080600060608486031215612db357612db2612ac5565b5b6000612dc186828701612d1b565b9350506020612dd286828701612d1b565b9250506040612de386828701612c66565b9150509250925092565b6000819050919050565b612e0081612ded565b8114612e0b57600080fd5b50565b600081359050612e1d81612df7565b92915050565b600060208284031215612e3957612e38612ac5565b5b6000612e4784828501612e0e565b91505092915050565b612e5981612ded565b82525050565b6000602082019050612e746000830184612e50565b92915050565b60008060408385031215612e9157612e90612ac5565b5b6000612e9f85828601612e0e565b9250506020612eb085828601612d1b565b9150509250929050565b600060208284031215612ed057612ecf612ac5565b5b6000612ede84828501612d1b565b91505092915050565b60008060408385031215612efe57612efd612ac5565b5b6000612f0c85828601612e0e565b9250506020612f1d85828601612c66565b9150509250929050565b612f3081612b54565b8114612f3b57600080fd5b50565b600081359050612f4d81612f27565b92915050565b60008060408385031215612f6a57612f69612ac5565b5b6000612f7885828601612d1b565b9250506020612f8985828601612f3e565b9150509250929050565b600080fd5b600080fd5b7f4e487b7100000000000000000000000000000000000000000000000000000000600052604160045260246000fd5b612fd582612bd9565b810181811067ffffffffffffffff82111715612ff457612ff3612f9d565b5b80604052505050565b6000613007612abb565b90506130138282612fcc565b919050565b600067ffffffffffffffff82111561303357613032612f9d565b5b61303c82612bd9565b9050602081019050919050565b82818337600083830152505050565b600061306b61306684613018565b612ffd565b90508281526020810184848401111561308757613086612f98565b5b613092848285613049565b509392505050565b600082601f8301126130af576130ae612f93565b5b81356130bf848260208601613058565b91505092915050565b600080600080608085870312156130e2576130e1612ac5565b5b60006130f087828801612d1b565b945050602061310187828801612d1b565b935050604061311287828801612c66565b925050606085013567ffffffffffffffff81111561313357613132612aca565b5b61313f8782880161309a565b91505092959194509250565b6000806040838503121561316257613161612ac5565b5b600061317085828601612d1b565b925050602061318185828601612d1b565b9150509250929050565b7f4e487b7100000000000000000000000000000000000000000000000000000000600052602260045260246000fd5b600060028204905060018216806131d257607f821691505b602082108114156131e6576131e561318b565b5b50919050565b7f4552433732313a20617070726f76656420717565727920666f72206e6f6e657860008201527f697374656e7420746f6b656e0000000000000000000000000000000000000000602082015250565b6000613248602c83612b95565b9150613253826131ec565b604082019050919050565b600060208201905081810360008301526132778161323b565b9050919050565b7f4552433732313a20617070726f76616c20746f2063757272656e74206f776e6560008201527f7200000000000000000000000000000000000000000000000000000000000000602082015250565b60006132da602183612b95565b91506132e58261327e565b604082019050919050565b60006020820190508181036000830152613309816132cd565b9050919050565b7f4552433732313a20617070726f76652063616c6c6572206973206e6f74206f7760008201527f6e6572206e6f7220617070726f76656420666f7220616c6c0000000000000000602082015250565b600061336c603883612b95565b915061337782613310565b604082019050919050565b6000602082019050818103600083015261339b8161335f565b9050919050565b7f4552433732313a207472616e736665722063616c6c6572206973206e6f74206f60008201527f776e6572206e6f7220617070726f766564000000000000000000000000000000602082015250565b60006133fe603183612b95565b9150613409826133a2565b604082019050919050565b6000602082019050818103600083015261342d816133f1565b9050919050565b7f455243373231456e756d657261626c653a206f776e657220696e646578206f7560008201527f74206f6620626f756e6473000000000000000000000000000000000000000000602082015250565b6000613490602b83612b95565b915061349b82613434565b604082019050919050565b600060208201905081810360008301526134bf81613483565b9050919050565b7f416363657373436f6e74726f6c3a2063616e206f6e6c792072656e6f756e636560008201527f20726f6c657320666f722073656c660000000000000000000000000000000000602082015250565b6000613522602f83612b95565b915061352d826134c6565b604082019050919050565b6000602082019050818103600083015261355181613515565b9050919050565b7f455243373231456e756d657261626c653a20676c6f62616c20696e646578206f60008201527f7574206f6620626f756e64730000000000000000000000000000000000000000602082015250565b60006135b4602c83612b95565b91506135bf82613558565b604082019050919050565b600060208201905081810360008301526135e3816135a7565b9050919050565b7f4e487b7100000000000000000000000000000000000000000000000000000000600052603260045260246000fd5b7f4552433732313a206f776e657220717565727920666f72206e6f6e657869737460008201527f656e7420746f6b656e0000000000000000000000000000000000000000000000602082015250565b6000613675602983612b95565b915061368082613619565b604082019050919050565b600060208201905081810360008301526136a481613668565b9050919050565b7f4552433732313a2062616c616e636520717565727920666f7220746865207a6560008201527f726f206164647265737300000000000000000000000000000000000000000000602082015250565b6000613707602a83612b95565b9150613712826136ab565b604082019050919050565b60006020820190508181036000830152613736816136fa565b9050919050565b600081905092915050565b600061375382612b8a565b61375d818561373d565b935061376d818560208601612ba6565b80840191505092915050565b60006137858286613748565b91506137918285613748565b915061379d8284613748565b9150819050949350505050565b7f7b226e616d65223a224845584120230000000000000000000000000000000000600082015250565b60006137e0600f8361373d565b91506137eb826137aa565b600f82019050919050565b7f222c226465736372697074696f6e223a2248455841204e46542077697468206f60008201527f6e2d636861696e2053564720696d6167652e222c000000000000000000000000602082015250565b600061385260348361373d565b915061385d826137f6565b603482019050919050565b7f22696d616765223a2022646174613a696d6167652f7376672b786d6c3b62617360008201527f6536342c00000000000000000000000000000000000000000000000000000000602082015250565b60006138c460248361373d565b91506138cf82613868565b602482019050919050565b7f227d000000000000000000000000000000000000000000000000000000000000600082015250565b600061391060028361373d565b915061391b826138da565b600282019050919050565b6000613931826137d3565b915061393d8285613748565b915061394882613845565b9150613953826138b7565b915061395f8284613748565b915061396a82613903565b91508190509392505050565b7f646174613a6170706c69636174696f6e2f6a736f6e3b6261736536342c000000600082015250565b60006139ac601d8361373d565b91506139b782613976565b601d82019050919050565b60006139cd8261399f565b91506139d98284613748565b915081905092915050565b7f4552433732313a206f70657261746f7220717565727920666f72206e6f6e657860008201527f697374656e7420746f6b656e0000000000000000000000000000000000000000602082015250565b6000613a40602c83612b95565b9150613a4b826139e4565b604082019050919050565b60006020820190508181036000830152613a6f81613a33565b9050919050565b7f4552433732313a207472616e736665722066726f6d20696e636f72726563742060008201527f6f776e6572000000000000000000000000000000000000000000000000000000602082015250565b6000613ad2602583612b95565b9150613add82613a76565b604082019050919050565b60006020820190508181036000830152613b0181613ac5565b9050919050565b7f4552433732313a207472616e7366657220746f20746865207a65726f2061646460008201527f7265737300000000000000000000000000000000000000000000000000000000602082015250565b6000613b64602483612b95565b9150613b6f82613b08565b604082019050919050565b60006020820190508181036000830152613b9381613b57565b9050919050565b7f4e487b7100000000000000000000000000000000000000000000000000000000600052601160045260246000fd5b6000613bd482612c45565b9150613bdf83612c45565b925082821015613bf257613bf1613b9a565b5b828203905092915050565b6000613c0882612c45565b9150613c1383612c45565b9250827fffffffffffffffffffffffffffffffffffffffffffffffffffffffffffffffff03821115613c4857613c47613b9a565b5b828201905092915050565b7f416363657373436f6e74726f6c3a206163636f756e7420000000000000000000600082015250565b6000613c8960178361373d565b9150613c9482613c53565b601782019050919050565b7f206973206d697373696e6720726f6c6520000000000000000000000000000000600082015250565b6000613cd560118361373d565b9150613ce082613c9f565b601182019050919050565b6000613cf682613c7c565b9150613d028285613748565b9150613d0d82613cc8565b9150613d198284613748565b91508190509392505050565b7f4552433732313a206d696e7420746f20746865207a65726f2061646472657373600082015250565b6000613d5b602083612b95565b9150613d6682613d25565b602082019050919050565b60006020820190508181036000830152613d8a81613d4e565b9050919050565b7f4552433732313a20746f6b656e20616c7265616479206d696e74656400000000600082015250565b6000613dc7601c83612b95565b9150613dd282613d91565b602082019050919050565b60006020820190508181036000830152613df681613dba565b9050919050565b6000613e0882612c45565b91507fffffffffffffffffffffffffffffffffffffffffffffffffffffffffffffffff821415613e3b57613e3a613b9a565b5b600182019050919050565b7f4552433732313a20617070726f766520746f2063616c6c657200000000000000600082015250565b6000613e7c601983612b95565b9150613e8782613e46565b602082019050919050565b60006020820190508181036000830152613eab81613e6f565b9050919050565b7f4552433732313a207472616e7366657220746f206e6f6e20455243373231526560008201527f63656976657220696d706c656d656e7465720000000000000000000000000000602082015250565b6000613f0e603283612b95565b9150613f1982613eb2565b604082019050919050565b60006020820190508181036000830152613f3d81613f01565b9050919050565b7f4e487b7100000000000000000000000000000000000000000000000000000000600052601260045260246000fd5b6000613f7e82612c45565b9150613f8983612c45565b925082613f9957613f98613f44565b5b828204905092915050565b6000613faf82612c45565b9150613fba83612c45565b925082613fca57613fc9613f44565b5b828206905092915050565b6000613fe082612c45565b9150613feb83612c45565b9250817fffffffffffffffffffffffffffffffffffffffffffffffffffffffffffffffff048311821515161561402457614023613b9a565b5b828202905092915050565b600061403a82612c45565b9150600082141561404e5761404d613b9a565b5b600182039050919050565b7f537472696e67733a20686578206c656e67746820696e73756666696369656e74600082015250565b600061408f602083612b95565b915061409a82614059565b602082019050919050565b600060208201905081810360008301526140be81614082565b9050919050565b600081519050919050565b600082825260208201905092915050565b60006140ec826140c5565b6140f681856140d0565b9350614106818560208601612ba6565b61410f81612bd9565b840191505092915050565b600060808201905061412f6000830187612cda565b61413c6020830186612cda565b6141496040830185612d70565b818103606083015261415b81846140e1565b905095945050505050565b60008151905061417581612afb565b92915050565b60006020828403121561419157614190612ac5565b5b600061419f84828501614166565b91505092915050565b7f4e487b7100000000000000000000000000000000000000000000000000000000600052603160045260246000fdfe4142434445464748494a4b4c4d4e4f505152535455565758595a6162636465666768696a6b6c6d6e6f707172737475767778797a303132333435363738392b2f3c73766720786d6c6e733d27687474703a2f2f7777772e77332e6f72672f323030302f73766727207072657365727665417370656374526174696f3d27784d696e594d696e206d656574272076696577426f783d273020302033353020333530273e3c7374796c653e2e62617365207b2066696c6c3a2077686974653b20666f6e742d66616d696c793a2073657269663b20666f6e742d73697a653a2033303070783b207d3c2f7374796c653e3c726563742077696474683d273130302527206865696768743d2731303025272066696c6c3d2762726f776e27202f3e3c7465787420783d273130302720793d273236302720636c6173733d2762617365273ea264697066735822122028bc3052d1d5e510a21031329a09c73199ea24b5716af091e6d486312397d62064736f6c634300080c0033",
  "linkReferences": {},
  "deployedLinkReferences": {}
}